:10000000008000207D0B0000C50B0000C70B000026
:1000100000000000000000000000000000000000E0
:10002000000000000000000000000000C90B0000FC
:100030000000000000000000CB0B0000CD0B000012
:10004000CF0B000049260000CF0B0000CF0B0000B3
:10005000CF0B000000000000CF0B0000CF0B000012
:10006000CF0B0000CF0B0000D5350000CF0B0000F8
:10007000CF0B0000CF0B0000CF0B0000CF0B000018
:10008000CF0B0000CF0B0000CF0B0000CF0B000008
:10009000A1290000CF0B0000CF0B0000CF0B000008
:1000A000CF0B0000CF0B000000000000000000009C
:1000B0000000000000000000000000000000000040
:1000C000164B002B00D1144B9D46402292029A1AE7
:1000D000924600218B460F461348144A121A00F02C
:1000E00067F80F4B002B00D098470E4B002B00D029
:1000F00098470020002104000D000D48002802D080
:100100000C4800E000BF00F02DF82000290000F0AE
:100110009FF800F011F8C0460000080000800020A1
:10012000000000000000000068000020FC08002023
:100130000000000000000000084B10B5041C002B5C
:1001400002D0002100E000BF054B1868836A002B35
:1001500000D09847201C00F033F8C0460000000093
:10016000F437000070B50E4B0E4D0024ED1AAD10A3
:100170001E1CAC4204D0A300F35898470134F8E7A2
:1001800003F02AFB084B094D0024ED1AAD101E1C8C
:10019000AC4204D0A300F35898470134F8E770BD8F
:1001A000680000206800002068000020680000202F
:1001B000031C8218934202D019700133FAE770478A
:1001C000FEE7C0461B4B1B78012B00D070471A4B33
:1001D0001B681A07FAD1194AF02312681A4003D093
:1001E000102A01D0302A03D1154A12681A4210D0C1
:1001F000124AF02312681A40402AE7D1104A1268C6
:100200001A42E3D1C12380220121DB00D205D15063
:10021000DCE70C4A0C4B1A600C4B802212021A606D
:10022000044B1B78012BD1D1034B1B681A07DFD07D
:10023000CCE7C046E00F00F0E40F00F0E80F00F05C
:10024000EC0F00F0DFFF07C004050040186C004011
:1002500008B5002000F00CFF00F022FD04495523F2
:100260000B7000200122002300F032FDFEE7C046A3
:100270008800002010B5074C55232370211C002353
:100280000122002000F024FD22780349002000F024
:1002900067FC10BD88000020F837000008B506494B
:1002A000002000F05DFC054955230B700020012261
:1002B000002300F00DFD08BD143800008800002068
:1002C00010B5074C82B0211C01AA002000F046FDA9
:1002D00022780449002000F043FC02B010BDC04663
:1002E00068000020243800007047C046F0B546463C
:1002F0004F46C0B4624C83B02378061C8846171C56
:10030000002B1DD102225F49226162615E4AA16118
:10031000E261A16480225D49D200A362E36263626C
:10032000E365A36522626365E16422655849E01DC7
:1003300003F049FA201C574903F045FA2023A37122
:10034000EFF31083012181F31088701C46003618EA
:10035000F600A61901937369012B55D0002B34D0F8
:10036000022B27D10023F468B56899461BE0013BB6
:100370001B1B2D1BBD4200D93D1C9D4200D91D1CDD
:1003800071682A1C0819414603F014FA6419A9443B
:10039000A8447F1BB568631B5A1E93415B421C40F7
:1003A000F460002F08D03369A342E0D8013B5B1909
:1003B0001B1BDEE700229146019B83F31088484611
:1003C00003B00CBC90469946F0BD3269F3689A427E
:1003D0003ED9013AD31A002291469F42ECD8F568E3
:1003E000B3685C1BA74241D3726841465019221C76
:1003F00003F0E0F93D1B4346191970682A1C03F00D
:10040000D9F9B946F560D7E73269F3689A421AD943
:10041000013AB468D31A9946BB4200D9B946F56887
:10042000641BA14519D3726841465019221C03F080
:10043000C1F94B461D1B4246111970682A1C03F076
:10044000B9F9F560B8E7B4681219013AD31AE2E7CE
:10045000B1685218013AD31ABDE771684A46481983
:1004600041464D4403F0A6F9F560A5E771683A1CD2
:10047000481941467D1903F09DF9B946F5609BE79F
:10048000EC04002044380000B8000020A800002040
:100490005038000054380000F0B54D465F465646CF
:1004A0004446F0B483B0161C0C9A051C8846994645
:1004B0009346B14200D2E1E0081C0124311C03F054
:1004C000C9F801348642F9D900944C4501D24A4614
:1004D00000920D9A01231A40019203D15B46002B32
:1004E00000D08BE0EA689246002A7ADBAF68434688
:1004F0004A46B846A9460124151C1F1C01E0744356
:10050000013D381C211C03F0A5F88642F7D9012DC6
:10051000F5D83B1C5A4A47469846331C4D4646463A
:100520009146984608E05246002A2ADB201C4146A4
:1005300003F090F8041E24D0301C211C03F08AF82C
:10054000231C4343F61A4B46195C6B687A1C9A428B
:100550000AD82B68D955EB68AA609A4601239A44B9
:100560005346EB606B68171C9F42DCD13A1C28692C
:100570002968FFF7BBFEAF68B84239D001235B4260
:10058000EB60019B002B2CD05A46002A29D0009BFF
:100590009B4526D91A1C20243B1C002690465F460A
:1005A00006E0EA68002A1CDB002F1AD0474518D95C
:1005B0006A68591C013F914207D82A68D454EB68F5
:1005C0006A680133EB60A9600B1C9A42E9D1286983
:1005D0002968FFF78BFEAB68984241D001235B424C
:1005E000EB6003B03CBC90469946A246AB46F0BDDA
:1005F000EB680022AA6000279A4694E70D9A20240F
:10060000920730D4009B9B4500D86BE7AF6800226F
:100610003B1C9246271C5C46B346009E06E0EA68F7
:10062000002ADEDB002C24D0B44222D96A68591C8F
:10063000013C914207D82A68D754EB686A680133B5
:10064000EB60A9600B1C9A42E9D128692968FFF781
:100650004DFEAB689842C1D15246AA600023DEE746
:10066000AE6000239DE74B463024002BCAD02024E7
:10067000C8E75E461F1CA346924638E7012423E7DD
:100680005C380000F0B55F46564644464D46F0B42F
:100690009BB0039040230C1C03990AA806930023E7
:1006A000924605900793099108939B460427237867
:1006B0000134002B00D171E1252B1ED123780026B7
:1006C00002210822251C2B2B0BD02B2B0CD92D2BD8
:1006D0000FD0302B2DD10E4301342378251C2B2B2A
:1006E000F3D13E430134F8E7232B22D116430134E2
:1006F000F3E7012006430134EFE707980699421C0F
:100700008A424DD805990B54089B06999B460123B4
:100710009B445846079208908A4244D05846002885
:10072000C5DA58461BB03CBC90469946A246AB463B
:10073000F0BD1A1C303A0024092A0BD8A200141963
:100740006400E31801351C1C2B78303C1A1C303A2D
:10075000092AF3D9002188462E2B02D14DE02B78AF
:1007600001351A1CBA43682AF9D0642B00D18AE0FB
:1007700025D9732B00D1DFE055D9752B00D0C7E008
:10078000504603681A1D0260196805A80094019676
:100790000A224346FFF780FE08998B466C1CBDE792
:1007A000021C8A42BAD105990998FFF79FFD079963
:1007B000884200D155E101235B429B46B1E7582BAB
:1007C00000D1A8E0632B41D0252BE7D107980699EB
:1007D000421C8A4200D8F9E0021C8A42DED1059907
:1007E0000998FFF783FD0799884200D0CCE0089B69
:1007F000002207929B466C1C90E76B78691C1A1CC0
:10080000303A0D1C092AACD8424691008A18520091
:10081000D31801351A1C2B78303A191C30390929A4
:10082000F3D990469DE7702BB8D1504603686C1CF5
:100830001A1D02601968002208230093019205A87E
:100840001022FFF729FE089B9B4667E75246136874
:1008500050461A1D026007991868069B4A1C9A4266
:1008600000D8A8E00A1C9A4298D109980599FFF788
:100870003DFD079A904200D086E008980023079338
:1008800083466C1C4AE751460B681A1D0A601B68B8
:10089000DA17981802935040092800DC41E101233F
:1008A000A1461C1C0A2102F023FF01340928F9DCAF
:1008B000231C4C469946C14579D3002C05D002999A
:1008C000002901DB374200D0013CB20700D588E0A7
:1008D0000120304200D18CE05B46002B00DA5DE75E
:1008E0000298002800DA0EE1374200D0C1E003236D
:1008F0003340022B00D1D7E000940A22019605A8CC
:1009000002994346FFF7C8FD089A6C1C934605E719
:10091000782B00D042E75246136850461A1D0260F9
:10092000196805A80094019610224346FFF7B4FD0C
:1009300008996C1C8B46F1E65246136850461A1D06
:1009400002601C685E460BE0059B5854089E069B9F
:100950000136079208969A420FD0002E00DA85E001
:1009600020780134002800D180E00799069B4A1CBA
:100970009A42E9D90A1C9A42EFD105990998FFF7E2
:10098000B5FC0799884205D001235B4208939B463A
:100990006C1CC3E600220792089EDEE75B46002B34
:1009A00000DCBEE6079A002A52D19344B9E6C1465C
:1009B000002C8AD083E7059B5854089807928346F9
:1009C0000120834459460891069B4CE705990B5436
:1009D000089B07929B4601239B4458460890069922
:1009E000FBE64346002B00D176E70120304200D0E1
:1009F00072E7002C00D16FE74C4500D86CE74B46FE
:100A0000079AB14658461E1C07E0002800DAA3E00A
:100A1000002C00D180E0B4427ED9069B511C013CE1
:100A2000994208D8059B202098540898069B0130CD
:100A3000079108900A1C9A42E7D105990998FFF797
:100A400055FC079988429FD1002207920898DCE75D
:100A50000AA90398FFF74AFC0899079A8B46934422
:100A60005FE6089B002207929B4657E6B3466C1C44
:100A700054E60799069B4A1C9A424BD82B230598AB
:100A80004354089907928B4601218B445B46089397
:100A9000069B9A424CD05846002800DA7EE6032393
:100AA0003340022B00D027E74146002900D023E73E
:100AB000002C3BD0A14500D31EE7079A584606E01C
:100AC000002849DB002C31D04C4500D814E7069BA8
:100AD000511C013C994208D8059B30209854089835
:100AE000069B0130079108900A1C9A42E8D10599AB
:100AF0000998FFF7FBFB0799884200D044E70022E2
:100B000007920898DCE70799069B40424A1C02902E
:100B10009A4209D90A1CBCE7331C83464E469946C3
:100B2000DEE601208146C6E62D23A8E70024E3E6A1
:100B300005990998FFF7DAFB0799884207D0012346
:100B40005B42089301235B429B466C1CE6E5089BD5
:100B5000002207929B469EE783466C1CDEE5C0465A
:100B60000EB400B582B003AB04CB111C01AA0193F3
:100B7000FFF788FD02B008BC03B0184703210A48FC
:100B800002680A430260094802680A430260084991
:100B9000084A094B9B1A03DD043BC858D050FBDCC4
:100BA0000648804706480047240500405405004099
:100BB000A43800000000002068000020C5010000EB
:100BC000C1000000FEE7FEE7FEE7FEE7FEE7FEE706
:100BD000F0B585B0040A070C0190030EC0B2039271
:100BE0000D1C0291E4B2FFB292B2052849D802F07E
:100BF00027FD031329464B43244E281C33713280B2
:100C000000F0D4FC79B24F42201C391CFFF732FBB4
:100C10003379002B38D02AE01C4F3A806B78DA0702
:100C2000D00FC6B2281C00F0C1FCFD78201C002D9E
:100C300005D0002E03D1311CFFF71CFB24E0FFF789
:100C40002DFB21E011487EB203717742002B0ED0BC
:100C5000002D02D00E498D4202D10E4802F070F9EB
:100C6000281C00F0A3FC201C391CFFF703FB201CF0
:100C7000391CFFF725FB07E0FFF736FB04E00648C9
:100C800000E0064802F05CF905B0F0BDB8040020B1
:100C9000ADDEADDE2903020033030200380302009B
:100CA00008B500F093FF08BD08B500F052FC00F055
:100CB00065FC002802D100F04CFC01E0FFF714FBBA
:100CC00008BD08B500F05AFC01235840C0B208BD69
:100CD000F7B5051C0191161C1F1C072801D900201F
:100CE00037E0019B002BFAD0202AF8D800F0A4FCB2
:100CF0000028F4D0281C00F097FC0228EFD8281C0C
:100D000000F096FC0228EAD800F046FC041EE6D06B
:100D10000670002F04D0012F07D14078B84302E0BD
:100D2000407801221043607002E00A4802F008F99E
:100D30000199A01C321C02F03DFDE8B2211C00F01C
:100D40003FFC002803D1044802F0FAF8C7E7C04688
:100D50000120FEBDB6000200BC000200F8B5041C74
:100D60000E1C171C00F064FC0025A84215D0AE42F2
:100D700013D0201C00F040FC041EAC420AD00278C4
:100D8000811C3A60301C02F015FD201C00F00EFCA6
:100D9000012502E0024802F0D3F8281CF8BDC04645
:100DA000E200020008B500F03FFC08BD08B500F005
:100DB0003FFC08BD08B5C0B200F042FC08BD08B554
:100DC000C0B200F057FC08BD014B18887047C04600
:100DD000B804002008B5002803D0012806D102205D
:100DE00000E0012000F0DAFE012000E0002008BD54
:100DF00008B500F0CBFB012804D0022804D003483A
:100E000002F09EF8002000E0012008BD320102003F
:100E100008B5012807D0002803D0022808D10420F3
:100E200002E0022000E0032000F0BAFC012000E014
:100E3000002008BD08B500F0C7FC03280AD004282C
:100E400006D0022801D1002005E0034802F078F81E
:100E5000022000E0012008BD6201020008B5054B38
:100E6000196800234A7E9A4202D100F00DFC01234A
:100E7000181C08BD6405002008B500F015FC08BD6D
:100E800008B5054B196800234A7E9A4202D100F04A
:100E900011FC0123181C08BD6405002008B500F0F2
:100EA00017FC08BD08B5064B1A680023527E9A420B
:100EB00004D1072802D800F011FC0123181C08BD3A
:100EC0006405002010B500230C1C072803D800F08F
:100ED00031FC01232070181C10BD08B500F07AFC0D
:100EE000012008BD08B500F07BFC08BD08B5054B26
:100EF000196800234A7E9A4202D100F077FC012350
:100F0000181C08BD6405002008B500F075FC08BD7C
:100F100008B5054B196800234A7E9A4202D100F0B9
:100F20008DFC0123181C08BD6405002008B500F0E5
:100F30008BFC08BD08B5074B19684A7E00218A4220
:100F400006D1054B01219870981C00F003FC01218B
:100F5000081C08BD64050020B8040020014B9878E7
:100F60007047C046B804002008B5062811D802F022
:100F700067FB041306080A0C0E0004200DE0FC2099
:100F80000BE0F82009E0F42007E0F02005E0EC2079
:100F900003E0044801F0D4FF002000F05BFC0120D6
:100FA00008BDC0461C02020008B500F061FCF02834
:100FB00016D007D804280DD0EC2813D00123002820
:100FC00016D011E0F82809D0FC2805D0F4280BD160
:100FD00004230DE000230BE0022309E0032307E0D4
:100FE000052305E0062303E0024801F0A9FF0123E1
:100FF000181C08BD4302020008B5012809D00223CD
:10100000002807D0984202D0054801F099FF01233B
:1010100000E00023181C00F07BFC012008BDC04646
:101020005B02020008B500F0C9FE012808D00123C8
:10103000002806D00023022803D0034801F080FFD7
:101040000223181C08BDC0467502020008B501281D
:1010500008D0002806D0022804D0044801F070FF10
:10106000002002E000F00AFC012008BD8E02020010
:10107000F8B5071C164800F0D9FD164A1649012498
:1010800000261060CC70B0421FD00A200E80FFF7FF
:1010900051FF051C381CFFF79DFE0540042000F0A1
:1010A0007FFB201CFFF760FFEDB205400220FFF739
:1010B000A3FF0540201CFFF7C9FF0540301C00F0CE
:1010C000ADFE201C00F080FE00E0051C281CF8BDD1
:1010D000D10B000064050020B804002008B500F022
:1010E00011FC031E012B09D00020834207D0022BE4
:1010F00004D0034801F024FF022000E0181C08BDC2
:10110000A802020008B5002801D0012803D100F090
:1011100085FE012000E0002008BD10B500F084FE2F
:101120000024A04206D0012803D0034801F008FFA4
:1011300000E0041C201C10BDD102020008B50120F3
:1011400000F078FE014B0122DA7008BDB8040020DF
:1011500008B5002000F06EFE014B0022DA7008BDD9
:10116000B8040020034B063080001918CA78013AF1
:10117000CA70704780060020024B9A6801329A605C
:101180007047C046B804002000B5064A0123117814
:10119000022903D05068421E904100E0181C1840FC
:1011A000C0B200BD6805002008B5FFF7EDFF044B95
:1011B000044A002801D0D06800E09068186008BD9B
:1011C000C4040020A005002008B5044B5A68002A7A
:1011D00001D0013A5A60FFF7E7FF08BD680500201B
:1011E00010B500231A1C041C1C41012121400724B6
:1011F000E41AA1400A430133D2B2082BF3D1101CE8
:1012000010BD70B50024061C251C301CE040C0B287
:10121000FFF7E6FF1823191B884008340543202CEC
:10122000F3D1281C70BD38B50D1C01F059FE084CD7
:1012300063699D4202D8074801F082FE606901227D
:10124000291A054802F040F90021616138BDC04605
:10125000680500204D060900212F000007B5A123D5
:1012600003210F4A8B40D15001F07CFD002815D09E
:1012700002280AD9032811D1002300930193181CD6
:10128000191C1A1C01F086FC03E00020011C01F06F
:101290001DFD042802D0034801F052FE07BDC046E0
:1012A00000F00140E801090008B501F00FFFA1239B
:1012B0000E4AD900505001F055FD012807D001F029
:1012C00051FD022802D00A4801F03AFE002001F048
:1012D000A1FA02F07BF9074BA221CA0098500648F8
:1012E000064AC1684868985008BDC04600100040D2
:1012F0001E06090000F00140C4040020140500008F
:1013000008B502F0D5F801280FD002F0B5F8074B68
:10131000187F002803D180210122CB055A600020CC
:1013200001F0DEFD024A0020506008BDA00500204B
:101330006805002010B501F052FD00281AD00E4BB0
:1013400000229A81DA8101F0ADFB0C4C0C4960500F
:1013500001F0A8FBA62201238340D100635001F0D5
:10136000A7FB084C206001F0A9FB074B6060E3601D
:10137000FFF79AFF10BDC04668050020001000402E
:101380002C050000840500203114000008B502F08F
:101390008FF8012822D101F0BDFD002802D01048AD
:1013A00001F0CEFD1E210F48002202F08DF80E4BF9
:1013B000197F002902D002F053F80FE00B480C4BC4
:1013C0000122026059608021C8050260C046C04603
:1013D000C046C0465A68002AFCD0ECE708BDC046AB
:1013E0002C060900212F0000A00500201405004054
:1013F000FC0000401FB5FFF783FF01F0C1F80A4A67
:10140000002301A80521017043601C1C0381438156
:1014100043708370C3709370537601F085FA03486C
:101420000470FFF71BFF1FBD680500209C0500200E
:10143000F0B53E4B8022D000195887B0012904D066
:101440003B4C00261D59B54206D13A4E2022776802
:1014500000263B789A427641374C012561692E403F
:10146000281C002901D102F029F8284201D10120CD
:10147000606101F077FC012802D0304801F060FD86
:101480002F4DEF683B7D002B02D02E4801F058FD18
:1014900001F076F8002E47D00120011C01F016FC67
:1014A000042836D802F0CCF803321832320001F0AA
:1014B000FFFAE289071CA689019201F0F3FAE968B4
:1014C0006D46897D0497AF8803AB00221A701E8198
:1014D0005F815870997014E001F0EAFA071CE08906
:1014E000A689019001F0DEFAEB686D469A7D0497BB
:1014F000AF8803AB00219A7019701E815F8158700C
:101500000122DA70181C01F00FFA02E00E4801F017
:1015100017FD01F001FE0D4E206170696060FFF75C
:1015200043FE002001F0FEFD07B0F0BD00100040BA
:10153000340500008405002068050020A806090085
:10154000C4040020A9060900C8060900A00500205F
:10155000704708B5012282F31088074B597E002995
:1015600005D09878002802D19A70FFF70FFF00226B
:1015700082F3108808BDC04668050020024B012098
:10158000597E48407047C04668050020014B1878D6
:101590007047C0466805002008B5012383F3108812
:1015A00001F07CFC002181F3108808BD08B50123FF
:1015B00083F3108801F076FC002080F3108808BDCA
:1015C00008B5012383F3108801F0D2FB00280DD069
:1015D00008488278002A04D1417E002901D0FFF713
:1015E000D5FE002383F31088012001E080F31088EA
:1015F00008BDC0466805002008B5012383F31088A4
:1016000001F0DEFB002181F3108808BD08B501F070
:10161000D2FB08BD08B5012383F3108801F0BBFBA2
:10162000002181F3108808BD08B501F0C0FB08BD9A
:1016300008B501F0CFFB08BD08B501F037FC08BDC7
:1016400010B50123041C83F3108808480278002A8F
:1016500005D0417E002902D0054801F071FC201C14
:1016600001F09DFB002484F3108810BD6805002064
:10167000FB02090008B5012383F3108801F0A5FBE4
:10168000002080F3108808BD08B5044B1862FFF7EE
:10169000B8FD0349034A505008BDC046A0050020CC
:1016A0001C05000000100040014B186A7047C0463E
:1016B000A005002008B5044B5862FFF7A2FDA42145
:1016C000024ACB00D05008BDA00500200010004009
:1016D000014B586A7047C046A0050020F8B5031CAE
:1016E000081C072B1AD80F4A03261E40D118F600F3
:1016F000FF24B4402831E74308700B4C032B01D87A
:101700000A4D01E0A525ED0063591F406751FFF721
:1017100067FD6759B0400743675102E0044801F094
:101720000FFCF8BDA00500200010004024050000BB
:101730003903090010B5041E072C02D9034801F033
:10174000FFFB034B18192830007810BD4103090036
:10175000A005002038B5051C0C1E02D1074801F079
:10176000EFFB002D02D1064801F0EAFB054B0020FB
:101770009D605C6001F0BEFC38BDC04648030900B6
:1017800049030900C4040020014B58617047C0465A
:10179000A0050020014B58697047C046A0050020F5
:1017A000064B074AA32110B55877CB00D458010443
:1017B000044820400843D05010BDC046A00500207A
:1017C00000100040FFFFF8FF014B587F7047C046F4
:1017D000A0050020014B18617047C046A0050020FD
:1017E000014B18697047C046A0050020014B5860A6
:1017F0007047C046A0050020014B58687047C0469E
:10180000A005002008B5024BD860FFF7CDFC08BD4D
:10181000A0050020014BD8687047C046A0050020F5
:1018200008B5024B9860FFF7BFFC08BDA00500207B
:10183000014B98687047C046A0050020014B5883B3
:101840007047C046A0050020014B588B7047C0462A
:10185000A0050020034B0449044A3033187050504F
:101860007047C046A00500200C0500000010004095
:10187000014B303318787047A0050020184B10B585
:1018800031331870174A184BFF249958A1439950C7
:10189000032821D8995801F0D3FE1D020A1401240F
:1018A000214399501149FF205850114906E0022068
:1018B000014399500F490D4A99500F49A722D20070
:1018C00008E00324214399500C480849A7225850A6
:1018D000A2400021995002E0094801F031FB10BDFF
:1018E000A005002034050000001000403C05000069
:1018F00007010000FFFF000021100100FFFFFF00B3
:10190000C2030900014B313318787047A00500204D
:101910001F4B00B532331870012821D0002810D099
:10192000022834D1A2211B4ACB00D0501A491B48AF
:101930001B4A08601B4B1C481C491A6008601C4A63
:1019400020E0A223134AD9005050134B1348154AE4
:10195000186013491748154B11601860164A11E0BA
:10196000A2230C4AD90050500B4B0C480C490D4A8D
:10197000186011601148124A0C4B1249186011602E
:10198000114A02E00E490A60104A1148026000BD87
:10199000A0050020001000402417004000500078EF
:1019A0004E0000542817004008800C602C1700409F
:1019B0008864720003800C602264720002800C60F4
:1019C0003017004011646600DEC08F823E420F82F5
:1019D00034170040F8B5A122334C344B344E354D0A
:1019E000D000002703210122F75031506751625186
:1019F000E05831490F220140E150E5580620954357
:101A00000543E550E1582D4DC02290020D4005439D
:101A1000E550A323DD006159294A80230A40625121
:101A200060595904014361516059FF2290432023BA
:101A30001843605161592348C02208406051224830
:101A400053000221C15001F0BDFD2049204A7050D1
:101A50007251204D032373511F4800F0C9FD1F4EE2
:101A60001F4DF060687FFFF79BFE286AFFF70CFEB2
:101A7000686AFFF71FFEE81928300178381C013723
:101A8000FFF72CFE082FF6D12F1C30373978154A76
:101A9000A1502C1C313420783235FFF7EFFE287826
:101AA000FFF736FFF8BDC0460010004014050000E7
:101AB00000F00140FC0F0000FFFEFFFFFFFFF0FF02
:101AC000FFFFFFFDFF00FFFF00E100E01C0500003D
:101AD000041100400405000084050020C404002017
:101AE000A00500200C05000070B5274E86B03378A5
:101AF00072789A4245D0002B01D1FFF76BFF7078C6
:101B0000002801D1FFF7AAFB2049214D00246C5089
:101B100000F036FD1F4D2C606C602C61AC60EC60F9
:101B20003378012B08D101F01DF9A04217D0201CF9
:101B3000211C01F0CBF812E0022B10D100F020FDA7
:101B4000154A2C61147001F00DF9032807D1009497
:101B50000194201C211C221C231C01F01BF8FFF700
:101B600023FB70780024307003A8042606704460BC
:101B70000481448144708470C47000F0D5FE01205B
:101B800000E0002006B070BD6805002014050000CC
:101B900000F00140840500209C05002008B50123C9
:101BA00083F3108808490A78824208D04870487E3A
:101BB000002802D1FFF798FF01E0FFF7E7FB0023C1
:101BC00083F3108808BDC0466805002038B5124B65
:101BD0005A7E1C1C002A1DD1FFF7FCFE0F488168AD
:101BE000051C002902D10E4801F0AAF96B68002BF0
:101BF00002D10C4801F0A4F901F080F9002802D0CC
:101C0000094801F09DF9002001F06AF9012262768D
:101C1000FFF7BCFB38BDC04668050020C4040020A7
:101C20005E0209005F02090066020900F7B501279C
:101C3000019087F31088574E5748584C00250021D3
:101C400003230175337031767176056045608560D8
:101C5000C5600561A5606560B5707560B560B581EA
:101C6000F58135617561777001F0BEFB019800F078
:101C700041FE00F0DDFE281C01F02AF9201C01F0D5
:101C800063F9C22246499300C858464C444A04406E
:101C9000D450C02398001158434C414A0C40C523EE
:101CA000145098001458FF218C4340223C4B14439D
:101CB0001C50381CFFF772FF3C4C01203C4B41424A
:101CC0003C48216123620422211C231C627760624C
:101CD0002831E7222933C22018700A70231C211CE6
:101CE0002A31C3222B33C42018700A70231C211CF4
:101CF0002C31C5222D33C62018700A70231C211CDC
:101D00002E31C7222F33C82018700A70231C221CC2
:101D1000022030320021313311701870221C01234F
:101D20009621814032325842E060656161601770EF
:101D3000FFF73AFA01225142A160FFF735FA00207D
:101D400020771023281C692563832776677601F0A6
:101D5000B1F825607478124DBC4202D0164801F0EB
:101D6000EFF837700027B7707760B760B781F781F9
:101D70003761776137767776FFF72CFEC0218020B8
:101D800080224B00C4005103EC50E95087F31088C7
:101D9000301CFEBD6805002084050020C40400201E
:101DA00000E100E0FFFF00FFFF00FFFFA0050020B3
:101DB000E7E7E7E7C2C2C2C23C020900014B323387
:101DC00018787047A0050020054B10B5041CD86892
:101DD000002802D1034801F0B3F803490C7510BD87
:101DE000C4040020F603090084050020014B187686
:101DF0007047C046A0050020014B187E7047C046C2
:101E0000A0050020014B58767047C046A005002071
:101E1000014B587E7047C046A0050020014B187743
:101E20007047C046A0050020014B187F7047C04690
:101E3000A005002008B501F03DF808BD08B50B4B22
:101E4000D868417D002906D0012000F03DFB084BF9
:101E50009A8901329A810749074B084A0020585055
:101E600051681368C91AFFF7DEF908BDC4040020E1
:101E7000680500201405000000F00140A0050020C6
:101E8000084B10B51A781C1C012A02D0064801F034
:101E900057F80649064A0220002320700B61CA60E9
:101EA00010BDC0469C050020920509008405002055
:101EB000511F000010B500F063FB194819491A4C76
:101EC00000230122027023610869A623174AD90062
:101ED000505000F047FF00280AD100F057FD0128BC
:101EE0000DD900F0F1FD6060002808D1104804E031
:101EF00000F038FF032802D00E4801F021F802203C
:101F000000F088FC002000F0DFFA00F02BFF03282F
:101F100002D0094801F014F8FFF7B2FF10BDC04627
:101F20009C050020A0050020840500200010004032
:101F30007B050900800509008805090008B5034BE9
:101F400005221A70FFF7B6FF08BDC0469C050020A9
:101F5000F0B5484A8023D800115887B0464C012973
:101F600004D0464D002356599E4205D16768002390
:101F70003978202088425B41414E0325002101270A
:101F8000357021603B408B4255D08123D8001558D5
:101F90003C4B11583C48D15002A912583B1C0091AF
:101FA0000194381C291C00F0F5FD032841D801F0EC
:101FB00047FB1E02204E0298002802D0334800F052
:101FC000BFFF281C00F006FF002802D1304800F0B7
:101FD000B7FF304903A8CF680223B97D00270370FB
:101FE00047603A1C07814781457081701DE02A488F
:101FF0002BE0029A002A02D1284800F0A1FF281CF9
:1020000000F0E8FE002802D1254800F099FF214F9A
:1020100003A8FB68029F997D02220023027047609B
:1020200003814381457081700122C27000F07CFC05
:102030000DE01C4809E000930193181C191C1A1CA0
:1020400000F0A8FD042802D0174800F079FF2568A9
:10205000002D06D100F094FA65752561FFF72AFF7F
:1020600005E012480122627520610424347007B033
:10207000F0BDC0460010004084050020340500007B
:102080009C0500202C0500000C040000B805090088
:10209000B9050900C4040020BD050900C0050900F8
:1020A000C1050900C8050900CF0509003D1F000052
:1020B00070B50C4DA124E4002E5901F007F88642BA
:1020C0000AD001F003F82851FFF7F4FE064900207A
:1020D0004968FFF7A8F870BD044B18780028F3D0C2
:1020E000F4E7C04600100040A00500209C05002039
:1020F000F0B5784C0125636989B0281C002B01D10B
:1021000001F0DCF90126284000D0B7E02178B14287
:1021100002D100F02DFA0FE0022907D000F024FFD1
:10212000FFF752F8A678002E0FD0AEE06A4A137877
:10213000033BDDB2AE4240410028EFD0674E0122A2
:102140007068410861616648B8E0FFF7CDFC634DF7
:10215000071E00D08FE0217801910E1E012E06D0BF
:10216000002963D0022966D1FFF7A2FF66E000F0E4
:1021700007FA00F0F7FD00281DD100F007FC012848
:1021800051D9FFF701F8071E0CD000F0DDFF002841
:1021900049D1287E00280BD100F0BEFF2669B0424D
:1021A00041D105E0206900F0A5FF381C00F0BAFF1E
:1021B000FFF7C0F837E06B8B002B20D0A2899A4242
:1021C0001DD3311C381C00F081FD00F071FC029021
:1021D000A2890392E68900F065FC69460A790299B2
:1021E00005AB1A7006910C226946515A5870181C9A
:1021F00019815E819F70DF7000F096FB13E001F0A3
:102200005DF9002802D0374800F09AFEA120364937
:10221000C700CE5900F05AFF864202D0E38901334D
:10222000E381FFF741F80120296801E0081C696893
:10223000FEF7F9FF02E02D4800F082FE6D7E012DD1
:1022400046D1FEF7A1FF002842D12478012C07D007
:10225000002C0DD0022C3BD0254800F071FE37E059
:1022600000F080FD002833D100F016FC00282FD1AB
:10227000FFF746F82CE06968301C27E0FEF7A4FF62
:10228000A778002F07D000F06FFE647E002C1FD0CF
:10229000FFF7B0F81CE02078022812D10E4A13781C
:1022A000033B012B04D900F05FFEFFF701FF0FE0B5
:1022B0000A4D0B486F68321C7908616101F004F91E
:1022C00006E000F051FE0549381C4968FEF7ABFFF7
:1022D00009B0F0BD680500209C050020A005002085
:1022E000212F00000A0509000010004058040900D1
:1022F0007204090007B50190C046C046C046C046FA
:10230000C046C046C046C046C046C046C046C0469D
:10231000C046C046019B013B0193002BECD107BD99
:1023200070B58022164B910000245C501549C225DF
:102330000E78AD00144A032E07D109267442C12637
:102340005C510825B4001D510AE0012676425E5119
:10235000C0230E4D02265B00EE50146103244C7026
:1023600000235360536193604B600B75984205D016
:10237000074801680A69002A00D0904770BDC0462E
:1023800000100040D4050020FC10004000E100E0F7
:10239000D4040020F8B53F4B1A69012A53D19D6936
:1023A0003D4C802296000135032104209D61187068
:1023B000C025A15139496A0002278F50384F0026A5
:1023C0003E61C1227E607E61BE60364E082591006E
:1023D000655035682A7D3D1C002A17D0A927F900D1
:1023E0006258314F9A75A023D9007A58024202D11F
:1023F0002E4800F0A5FD00200123A122286204211F
:10240000A361D300F950A927F9006050686800283B
:1024100002D0274800F094FD2D69002D02D02548F8
:1024200000F08EFD244A536899072DD43768F96867
:10243000002900D088473668707D002828D035688C
:102440001E4AA55024E0022A1AD1154900250D6123
:1024500011484D6180244D6001278D60C221A60086
:102460007A428C0085511D700251032058705D60C6
:102470001D750C4B1E683769AF4209D0B84707E09D
:102480000F4800F05DFD03E00E4800F059FDCDE778
:10249000F8BDC046D40500200010004000E100E077
:1024A000FC100040D404002000F00140AD020A00FE
:1024B000B6020A00B7020A00FCE100E004050000D1
:1024C000E7020A00B8020A0070B51E4D061C6B7DBB
:1024D0006C78002B02D11C4800F032FD287D0028CA
:1024E00002D01A4800F02CFD012200212A756975DE
:1024F000022C0CD816482301C318002E01D11E68E7
:102500003260621E012A05D8997A297002E01148CA
:1025100000F016FD104D2868037D002B11D0022C11
:102520000FD10E4C0E4E251C3259530702D40D48C4
:1025300000F006FD0C494859002802D10B4800F074
:10254000FFFC70BDD405002021010A0022010A0011
:102550006C3800003A010A00D40400200405000091
:1025600000F0014040010A000010004041010A0053
:10257000024B98680138434258417047FC100040B4
:10258000F8B5164B164C02200121C027C222D8678D
:102590004D4282407B00134E8021134FA550814055
:1025A0000025F050012265507D61104D2261A2612D
:1025B0002C78944201D1062003E0023C012C00D982
:1025C000101C0024FFF796FE7C61201C2C70FFF786
:1025D000A7FE02206C753060F8BDC04604E100E043
:1025E0000010004000E100E0FC100040D405002095
:1025F00038B50E4B0E4C18600E490F4B0F4A022592
:10260000201DC56799500E48A421CA009850FFF7B5
:10261000B7FF0C480023032103704170436003613E
:10262000037543758375256038BDC046D40400200A
:1026300000E100E01410004000F00140240500001B
:1026400004110040D405002070B55C4C2369607D06
:10265000013365782361002802D0594800F070FCEE
:102660002178032948D1574E3269002A44D0012DE0
:1026700035D12269032A02D0534800F061FCA069D9
:1026800002210130514A8025A06100238D400120A4
:10269000217053514542C22088401550C025680022
:1026A0004B4D29504B493361096873607361B360C6
:1026B0000326667063602375087D98420DD0A925B6
:1026C000E80016580125A6753E4C04262362956144
:1026D000A124414DE4002E511350CA6865E0022D3B
:1026E00008D12369012B02D03C4800F029FCFFF7F8
:1026F00051FE61E03A485DE0032D5AD0012D3CD1F6
:102700002169012918D12F480021304B0126C2220E
:102710004160816070429100C1265850B0001D5048
:102720002C4D304E2A68117D002902D02A4D0420FC
:10273000A851E4689C513FE002293DD1234E214A33
:102740008023002598000221C22315615561556040
:1027500035504A429800C12132508B000822F25075
:1027600003262670656025751A4C2568261C286985
:10277000002800D08047306816E0022DB7D0657879
:1027800019482B01C1180E7B0025AE4203D00D4A1B
:1027900015696A1E95418B7A01202370FFF7C0FDF1
:1027A000002D09D00B4C20688268002A04D0904785
:1027B00002E00E4800F0C4FB70BDC046D405002006
:1027C00090010A00FC1000409F010A000010004028
:1027D00000E100E0D404002000F00140A4010A0060
:1027E000A9010A00040500006C380000D6010A00A7
:1027F00008B5022804D8054B18784342584103E035
:10280000034800F09DFB002008BDC046D405002011
:10281000F9020A00F8B52B4C0301061C2A4F207D53
:10282000FF18002802D0294800F08AFB301CFFF76F
:10283000DFFF002802D1264800F082FB0121C222DE
:10284000244D0023484291006375C02268502249FC
:102850000220520088502148667002681168526850
:102860002361A3613B68A160E2606360022E18D817
:10287000387A80239B00E850F87A194B002805D15C
:10288000E950EA58002A08D1164804E0EA50E9580D
:10289000002902D1144800F053FB7F7AC120830045
:1028A000EF500E4D29680A7D002A07D0022E05D16F
:1028B0000B480E4B00260427A6751F500125657591
:1028C000F8BDC046D40500206C380000DB000A00CB
:1028D000DD000A000010004000E100E0D404002008
:1028E0000405000000010A0005010A0000F0014093
:1028F0007047C04610B5041E02D1084800F020FB06
:10290000074B00221C60191DDA670833CA67802054
:10291000DA67044B44031C6010BDC04629000B005D
:10292000F805002000E100E070B5144C051C236898
:10293000002B02D1124800F003FB201C0830C16FAD
:10294000092902D90F4800F0FBFAE66F0C22564322
:10295000A319043343CD43C3251C0835E86F013068
:10296000E867E16F0131E167E66F092E01D90022C6
:10297000E2678024044B65035D6070BDF8050020AC
:1029800034000B0035000B00FCE100E0034B0A2093
:102990000833D96F421AD0B27047C046F8050020FC
:1029A000F0B587B0012383F31088134C124D08341F
:1029B000E06F00281BD02A1DD16F0C26714303AB9A
:1029C00069180431181CE0C9E0C0E76F0026013F18
:1029D000E767D46F0134D467D56F092D00D9D66766
:1029E00086F31088044A176807CBB847DAE780F304
:1029F000108807B0F0BDC046F805002038B50A4C75
:102A0000051CE36F002B02D1084800F099FA291C3D
:102A10000831E06F00F03CFC0021884201D0E16702
:102A20000121081C38BDC046800600206F020C0042
:102A300010B500F0B7FB0021124A8800002384186B
:102A40008818A361A363041C80348830237003704A
:102A50000D480C18013123700829EDD1111C101CF0
:102A6000141C903191305834137053609360D360CC
:102A7000136153610B7003702370D367923201238B
:102A8000137010BD8006002014070020014B185C55
:102A90007047C04614070020014B903318787047E8
:102AA00080060020014B58687047C0468006002011
:102AB000014B98687047C04680060020014BD868DB
:102AC0007047C0468006002010B5104C2378002BBC
:102AD00002D00F4800F034FAE06F002802D100F075
:102AE0008BFBE067E06F00280FD0012143784A425A
:102AF00006210B43437002700023C218FF210133EB
:102B00009170202BF9D10323237010BD8006002083
:102B10003B010C0038B5124C2378002B1ED1201C31
:102B200090300178002919D10825606900F028FC4F
:102B3000002805D0231C6069903301221A7020619F
:102B400061690131082900D10021231C61619033A2
:102B50001A78002A02D1013D002DE6D138BDC046C9
:102B60008006002038B5094D041C2B1C90331878C2
:102B7000002804D02969A14201D1FFF7CBFF2A190F
:102B8000034B0025803215701D5538BD800600208E
:102B900014070020F0B5464D85B00393EB6F061C7B
:102BA0000C1C171C002B02D1424800F0C9F92878F0
:102BB000032802D0404800F0C3F9E96F01234A78A6
:102BC0001A4202D192352D786B400425002E61D037
:102BD00050070126810F1E40251C231C0A060833BE
:102BE0000E353F023249A8003F0A02930B581743A3
:102BF0000B980A9A0025156005609F4233D0201C6F
:102C0000FFF7FCFE0190AE4200D0051C01232E1CF4
:102C10001E40002828D00299254A06318800875096
:102C2000039F1D1C002F20D0244F3B5D002B1CD088
:102C3000201C00F0A5FB002802D1214800F080F9FB
:102C4000201C00F05BFB051E02D0201CFFF78AFF52
:102C50000A990D60002D02D11A4800F071F9002088
:102C60003855022501E001950325002E0DD0201CCA
:102C700000F06CFB0B9E3060002802D1124B3360D9
:102C800005E00E4F01223A5501E00B9C26600199A8
:102C9000002905D1064CE06F00F0CCFA0020E06777
:102CA000034A00261670FFF735FF281C05B0F0BD5B
:102CB000800600205B010C005C010C001407002062
:102CC00091010C0096010C00D8060020F8B51F4CAD
:102CD000071C23780E1C013B012B02D91C4800F075
:102CE0002FF90425002F19D02078012802D0194887
:102CF00000F026F9E268002A02D1174800F020F916
:102D0000E16800250F78AF4208D06068FFF776FED3
:102D10000225002802D1114800F012F9002E0ED031
:102D20006768381C00F0EAFA061E02D0381CFFF76C
:102D300019FFA3689E4202D0094800F001F9002063
:102D40002070FFF7E7FE281CF8BDC0468006002073
:102D5000FC000C0002010C0003010C000E010C0031
:102D60001E010C00014B18787047C04680060020F9
:102D700038B5041C0D1C00F013FB002801D1002005
:102D800008E0281C211C00F083FA0028F7D0FFF788
:102D9000C1FE012038BD08B500F0D8FA08BD10B555
:102DA000041CFFF7DFFE201C00F000FB10BD08B57F
:102DB00000F0E6FA08BD08B5083000F0C7FA08BD13
:102DC00008B5083000F09AFA08BD08B5083000F0E0
:102DD000EDFA08BD08B5083000F0D2FA08BD10B50C
:102DE0002A4C2378002B02D0294800F0A9F8201C97
:102DF00090300178002927D02069606000F0A6FAA1
:102E0000A060002802D1234800F09AF8A2680123AC
:102E10005078034004D1211C92310A78002A10D145
:102E20006068FFF7D7FF02280ED8E36F002B02D1AE
:102E300000F0E2F9E067E16FE160002904D00120D1
:102E400001E0E360022020702278002082421BD043
:102E5000A368834202D1104800F072F820696060D4
:102E6000063081006318DA7803210132D0B2D870BD
:102E7000A36808405A784100062082430A435A70EA
:102E8000903400232370012010BDC046800600202E
:102E9000C3000C00C9000C00E7000C0008B500F0EE
:102EA000ABF908BD08B500F0C5F908BD08B500F0DC
:102EB00077FA08BD014B92331870704780060020E6
:102EC000014B923318787047800600207047C04647
:102ED000024B9870587018707047C0461C0700204D
:102EE00010B5041E012C02D9024800F029F8024B4B
:102EF0005C7010BD2A000D001C070020014B1878E3
:102F00007047C0461C070020014B98787047C046A8
:102F10001C070020014B58787047C0461C07002052
:102F200008B5054B1A7858789A701870034B8100D1
:102F3000CA58904708BDC0461C070020600000200A
:102F400008B5FEF719F908BD10B5041E02D10448F2
:102F5000FFF7F6FF034B00221C605A609A6010BD19
:102F60002A000100D8040020094B00B518689A68AF
:102F7000016801329A608A4208D359684068002289
:102F800001319A605960814200D35A6000BDC04649
:102F9000D8040020F8B500282AD0164CA3680128D0
:102FA0000ED1276801333A68A360934220D360684A
:102FB000796800250130A5606060884218D316E06A
:102FC0002668C7183568A760381C291C00F042FB2A
:102FD00062683B1C80186060AB4201D35B1BFBE75F
:102FE00071686568A3608D4201D36D1AFBE7656067
:102FF000F8BDC046D8040020024B1A6899681068D2
:10300000401A7047D804002070B50D4D041C2B6881
:103010005868844202D30B48FFF792FF6E68B442AF
:103020000CD002D829684A68A418FFF7E5FF2D687C
:10303000F3432E6819197143081800E0002070BD91
:10304000D80400206800010070B5041C0D1C8842E3
:1030500002D30B48FFF774FF0A4E336818688542A5
:1030600002D90948FFF76CFFB168601AA14206D384
:103070000020A94203D3326815686E1A301970BD5A
:103080007D000100D80400207E00010038B5041C3A
:10309000101C0D1CFFF7B8FF002801D0001911E02B
:1030A000201C291CFFF7D0FF041CFFF7A5FF031C01
:1030B000201E984206D304490D686A682C68013ABC
:1030C0005443001938BDC046D8040020074B10B542
:1030D0001A68596850681C1C814202D30448FFF7E3
:1030E0002FFF236861689A68505C10BDD8040020E7
:1030F000B200010038B5064B041C1A681D1C50684C
:10310000844202D30348FFF71BFF6C6038BDC04602
:10311000D8040020B9000100014B58687047C04630
:10312000D804002038B5064B041C1A681D1C106812
:10313000844202D30348FFF703FFAC6038BDC046AA
:10314000D8040020C5000100014B98687047C046B4
:10315000D804002010B50F4B1A68002393420BD2FD
:103160000D499C006458A04203D10C48FFF7E8FECB
:103170000CE00133DBB2F1E700242222624308496C
:103180005318984204D00134062CF6D1002000E0F8
:10319000012010BD2007002024070020F6000300B6
:1031A0002C08002010B500220F4950008018002381
:1031B0000C1801326370A3704354102AF4D12222F8
:1031C0005A430A490A485418211C9A008450223153
:1031D000DE22227001348C42FAD10133062BEED16B
:1031E000044C236010BDC0463C0700202C08002082
:1031F000240700202007002038B50A4B1C68002C4B
:103200000ED0621E084990004458084D1A6045507F
:10321000201CFFF79FFF002802D10548FFF790FE12
:10322000201C38BD2007002024070020ADDEADDEC5
:103230007D00030070B5104C051C2368052B02D9D6
:103240000E48FFF77DFE281CFFF784FF002802D1FF
:103250000B48FFF775FE21680A488A0011580A4B8F
:10326000061C994202D00948FFF76AFE20688200D6
:103270000130B550206070BD20070020850003009C
:103280008600030024070020ADDEADDE88000300C9
:10329000F8B5051C0C1E0F2C02D91448FFF750FE80
:1032A000281CFFF757FF002802D11148FFF748FEFE
:1032B000104966003019435C0022022B13D80B180A
:1032C0005F78C0190C4F8000C5515D780135E8B2B8
:1032D00058705F78022F00D95A7032198C5C013413
:1032E000E6B28E540122101CF8BDC0468F000300C8
:1032F000900003003C0700206C07002038B5041E36
:103300000F2C02D90E48FFF71BFE0E4A6500291943
:10331000885C002813D05318987809180A48890047
:10332000085899780131C9B299709978022901D960
:10333000002199702C19155D013DEBB2135538BD74
:10334000A60003003C0700206C07002010B5041EF7
:103350000F2C02D90748FFF7F3FD074B6200111944
:10336000C85C002805D0581884780B1903499A00C6
:10337000505810BDB70003003C0700206C07002028
:1033800010B5041E0F2C02D90348FFF7D9FD6300C6
:1033900002491819405C10BDC80003003C0700201A
:1033A000014B18687047C0462007002038B5051E3D
:1033B0000F2D0CD90948FFF7C3FD08E0084B9C42CC
:1033C00002D10848FFF7BCFD201CFFF733FF281C83
:1033D000FFF794FF041EF1D138BDC046D7000300AB
:1033E000ADDEADDEDB000300164BA12110B50122DE
:1033F000CC0000205A60DA6018515A64124A1C1C32
:103400009958814202D01148FFF79AFD0123C22248
:10341000584291000E4B60500022A2215A640420B1
:10342000CB00E0500B490C4C0120226022716271EC
:1034300008700A4B8022C021D40081405C501C607F
:1034400010BDC04600A00040440500003500040047
:10345000FCA00040F8080020E404002000E100E0A7
:10346000034B0449012200201A6008707047C046CF
:1034700000A00040F8080020094A30B5012353603D
:10348000084CD3608025084AC0200021ED009840F8
:103490001160117125505171044A137030BDC0463E
:1034A00000A0004000E100E0E4040020F808002053
:1034B000014B18787047C046F8080020014B187976
:1034C0007047C046E4040020F7B5334F0092334CF8
:1034D0008022C2237E790191051C99005002605020
:1034E000002E02D02E48FFF72BFD002D02D12D48D3
:1034F000FFF726FD3A68002A02D02B48FFF720FD8F
:103500003D60009D294E012D0DD0002D03D0022DD0
:103510000DD1A92208E00120254B00996064E558EF
:103520002064716407E0A822D500655903E02148B2
:10353000FFF706FD002501227A71019FA821E819F5
:1035400087B20023C800736427502758009762642D
:10355000174AA758716C1E1C994202D01648FFF7F3
:10356000EFFC009BAB4205D3AF4201D39F420CD38B
:10357000124808E0301CAF427041009DAF427641D6
:10358000B04202D00E48FFF7DBFC8022C121570277
:103590008E00A751F7BDC046E404002000A0004003
:1035A000730004007500040076000400FCA00040D5
:1035B00044050000890004009B000400B0000400E2
:1035C000C90004000048704748A000400048704708
:1035D00040A1004070B58022134C144DC22350020C
:1035E0009900002668506664114C2268B24202D1EC
:1035F0001048FFF7A5FC104B012166712068A82236
:1036000026606964EE58D300EA580C4D1432AE427D
:1036100003D8C0231D02AA4202D800219642494184
:103620002171804770BDC046FCA0004000A0004052
:10363000E4040020EC00040044050000FF3F00000B
:1036400002B4714649084900095C49008E4402BC35
:103650007047C046002934D00123002210B48842AC
:103660002CD301242407A14204D2814202D20901B1
:103670001B01F8E7E400A14204D2814202D24900D2
:103680005B00F8E7884201D3401A1A434C08A04275
:1036900002D3001B5C0822438C08A04202D3001B0B
:1036A0009C082243CC08A04202D3001BDC08224322
:1036B000002803D01B0901D00909E3E7101C10BC46
:1036C0007047002801D00020C04307B4024802A17F
:1036D0004018029003BDC046D90000000029F0D078
:1036E00003B5FFF7B9FF0EBC4243891A1847C0461D
:1036F000002941D010B4041C4C40A44601230022F0
:10370000002900D54942002800D5404288422CD3E8
:1037100001242407A14204D2814202D209011B01E3
:10372000F8E7E400A14204D2814202D249005B00E2
:10373000F8E7884201D3401A1A434C08A04202D34A
:10374000001B5C0822438C08A04202D3001B9C088B
:103750002243CC08A04202D3001BDC0822430028ED
:1037600003D01B0901D00909E3E7101C6446002CB3
:1037700000D5404210BC7047002806D003DB002073
:10378000C043400801E08020000607B4024802A1BF
:103790004018029003BDC046190000000029EBD07C
:1037A00003B5FFF7A7FF0EBC4243891A1847C0466E
:1037B0007047C04610B50023934203D0CC5CC4547C
:1037C0000133F9E710BD031C0A7801311A70013387
:1037D000002AF9D170470000F8B5C046F8BC08BC13
:1037E0009E467047F8B5C046F8BC08BC9E46704778
:1037F000430000000000002053656E642073756371
:1038000063657373212020646174613A25700D0A29
:103810000000000053656E64206661696C65642178
:103820000D0A0000726563656976656420737563CF
:1038300063657373212020646174613A25700D0AF9
:10384000000000005465726D696E616C000000003C
:1038500052545400534547474552000030313233EB
:10386000343536373839414243444546001000402C
:103870001011004003100000010000000010004083
:10388000000000000B0204000000000004100040D3
:0C38900000000000070803010000000019
:08389C0024C8FF7F01000000B9
:1038A4000000000000000000000000000000000014
:1038B4000000000000000000000000000000000004
:1038C400F0370000000000000000000000000000CD
:1038D40000000000000000000000000000000000E4
:1038E40000000000000000000000000000000000D4
:1038F40000000000000000000000000000000000C4
:08390400F12000003D1E00004F
:0400000300000B7D71
:00000001FF
